:020000040800F2
:100000009007002035020008E1270008D1210008F0
:100010002D270008F91D00081F3A00080000000005
:100020000000000000000000000000001D2E00087D
:10003000FD1D000800000000CD2C0008493000081C
:100040004F0200084F0200084F0200084F0200084C
:100050004F0200084F0200084F0200084F0200083C
:100060004F0200084F0200084F0200084F0200082C
:100070004F0200084F0200084F0200084F0200081C
:100080004F0200084F0200084F0200084F0200080C
:100090004F0200084F0200084F0200084F020008FC
:1000A0004F020008ED3200084F0200084F0200081E
:1000B0004F02000815330008653300084F0200089E
:1000C0004F0200084F0200084F0200084F020008CC
:1000D0004F020008A1370008353800084F02000819
:1000E000011E00084F0200084F02000800F002F84D
:1000F00000F090F80AA090E8000C82448344AAF132
:100100000107DA4501D100F085F8AFF2090EBAE82F
:100110000F0013F0010F18BFFB1A43F0010318473B
:100120002492000044920000103A24BF78C878C19D
:10013000FAD8520724BF30C830C144BF04680C60ED
:10014000704700000023002400250026103A28BF35
:1001500078C1FBD8520728BF30C148BF0B60704739
:100160006E2900F01F82702900F06183662907F074
:100170005486652907F05186672907F04E86612964
:1001800007F04D8603681B0A28BF41F080016929EA
:1001900000F0CC81642900F0C981752900F0C68186
:1001A0006F2900F0EE82782900F02D83E92900F014
:1001B0008982E42900F08682F52900F08382EF2904
:1001C00000F0EB82F82900F02C830368DB0928BFDC
:1001D00041F08001632901F05580732901F05A80B4
:1001E000E32901F06580F32901F06A80002070475F
:1001F0001FB501F0E3F804000020002106F03AFDED
:10020000401C60600020002106F01EFDE0601FBD64
:1002100010B510BD01F0A4F81146FFF7E9FF05F095
:10022000C3F901F081F903B4FFF7F2FF03BC01F059
:10023000C5F900000948804709480047FEE7FEE786
:10024000FEE7FEE7FEE7FEE7FEE7FEE7FEE7FEE786
:1002500004480549054A064B704700004D30000828
:10026000ED0000089001002090070020900300207E
:100270009003002010B5044600211120ABBE002CD5
:1002800000D0206010BD10B54C1084EA530404D592
:100290004042C1F1000138BF491E1B4204D5524201
:1002A000C3F1000338BF5B1E00F05CF814F0804F10
:1002B00004D04042C1F1000138BF491E14F0004F84
:1002C00004D05242C3F1000338BF5B1E10BD0000D2
:1002D0001CB50C46064B7B4469460090204600F056
:1002E0007AF904460020694600F088F920461CBDD2
:1002F0002303000040EA010310B59B070FD1042A35
:100300000DD310C808C9121F9C42F8D020BA19BAE0
:10031000884201D9012010BD4FF0FF3010BD1AB145
:10032000D30703D0521C07E0002010BD10F8013B9A
:1003300011F8014B1B1B07D110F8013B11F8014BC1
:100340001B1B01D1921EF1D1184610BD02F0FF0314
:1003500043EA032242EA024200F03ABB7047704788
:100360007047704753EA020C00F069802DE9F04BAA
:100370004FF00006002B1FBFB3FA83F503FA05F414
:1003800024FA05F65E4012BF1643B2FA82F502FA6D
:1003900005F4C5F120051EBF22FA05FC44EA0C0451
:1003A000203556EA044C4FEA144418BF641C4FF041
:1003B00000084FF00009904271EB030C39D300297B
:1003C00019BFB1FA81F701FA07F6B0FA80F700FA1F
:1003D00007F6C7F120071EBF20FA07FC46EA0C0605
:1003E0002037B6FBF4FCA7EB0507103F07F01F0B07
:1003F000CBF120060CFA0BFB2CFA06F644BFB346F1
:100400000026202FA4BF5E464FF0000B5BEA060CCF
:1004100008BF4FF0010B19EB0B09ABFB027C48EB5B
:100420000608C01B06FB02CC0BFB03CC71EB0C01D6
:10043000C1E70B46024641464846BDE8F08B13B57E
:100440004FF000004FF00001AFF30080BDE81C400A
:10045000704710B500F0DCFA006810BD10B5044616
:1004600000F0D6FA046010BD70B5044685690068D6
:10047000C10601D5302600E02026C00707D070BD98
:10048000D4E9012130469047206A401C20626D1E4D
:10049000F6D570BD70B5044685690078C00707D1F0
:1004A00070BDD4E9012120209047206A401C2062C1
:1004B0006D1EF6D570BD09684A0501D540B270477A
:1004C000C905FCD500B2704709684A0501D5C0B21C
:1004D0007047C905FCD580B2704770B50C4605461B
:1004E000012A05D02878800600D5EA69002302E0B9
:1004F000012305E05B1C934202D2E05C0028F9D1A5
:10050000A869E618C01AA861286A18442862284613
:10051000FFF7AAFF04E0D5E9012114F8010B904789
:10052000B442F8D32846FFF7B5FF70BD2DE9F0417E
:100530000646002410687529314616A510D0FFF72D
:10054000BAFF002802DA404213A507E031688A07A3
:1005500001D512A502E0490704D511A5012401E047
:10056000FFF7B2FF00210A2206F1240709E0B0FBE1
:10057000F2FCB0FBF2F302FB1C003030785418465A
:10058000491C0028F3D123462A463046BDE8F041F5
:1005900000F087BA000000002D0000002B000000D2
:1005A0002000000011680268006A530501D5087038
:1005B0000AE0D30501D5088006E0130603D5C2176B
:1005C000C1E9000200E008600120704701694A1C8F
:1005D00002610878704700B58FB0CDE90131002184
:1005E000059105497944CDE903101146684600F0AC
:1005F00029F90FB000BD0000E5FFFFFF0A6802F80F
:10060000010B0A60704700002DE9FF5F15468A461E
:100610000446DFF8AC80F8440027D8E900103E46D5
:10062000CDE9001010E03AF816106A4602A800F072
:100630004BFE411C07D02178890603D5E2693918A1
:1006400091420DD80744761C2078800602D5E069D7
:10065000B84205DDAE42E6DB3AF816000028E2D1EA
:10066000A069C01BA0612046FFF7FEFED8E900107C
:10067000CDE90010002017E03AF818106A4602A8E9
:1006800000F022FEB0F1FF3F81460BD000250DF1B6
:10069000080B05E0D4E901211BF8050090476D1C0B
:1006A0004D45F7D308F10100B0428046E4DB206AF3
:1006B000384420622046FFF7EDFEBDE8FF9F0000B2
:1006C000868B00002DE9F0418046D21D22F0070202
:1006D0000025D2E90002F52915A614D0011E72F1F9
:1006E000000106DA0023D0EB030063EB020211A63F
:1006F00008E0D8F800108B0701D50FA602E04907E3
:1007000001D50EA601251146002408F1240704E0B6
:1007100000F082F930323A55641C50EA0102F7D1F8
:100720002B46324621464046BDE8F04100F0B9B9BB
:10073000000000002D0000002B0000002000000041
:1007400030B4002100F1240408E002F00705D208CB
:10075000303542EA4372DB086554491C52EA03050E
:10076000F3D10468002310A2250707D5A40600D4FE
:1007700021B1C46901230DA2641EC46130BC00F024
:1007800090B910B5044621461068FFF79DFE024659
:100790002046BDE810400023D2E7D21D22F0070119
:1007A000D1E90023CCE70000000000003000000089
:1007B000F0B40D460188090502D5214C7C4402E0C5
:1007C0001F4C7C440E34002100F1240608E002F0A6
:1007D0000F071209E75D42EA03721B097754491CAF
:1007E00052EA0307F3D102780023120704D5702DD3
:1007F00006D009B1022311342246F0BC00F051B9F1
:1008000001231034F8E770B504460D462146106800
:10081000FFF75AFE024629462046BDE870400023F5
:10082000C6E7D21D22F00703D3E90023C0E703681F
:10083000126843F0200303600823C3610023B7E775
:10084000E88900002DE9F05F894604464FF0000A70
:10085000DFF874B1FB44C0F820A02046E168884767
:10086000002874D0252806D0D4E901219047206AB9
:10087000401C2062F1E700265F462046E168884779
:100880002028054607DB312D05D2781910F8200CF9
:1008900008B10643F1E7B00701D526F00406C4F815
:1008A0001CA00027C4F818A02A2D09D0284603F060
:1008B00035F938B304EB8708303DC8F8185019E013
:1008C00059F8041B204604EB87029161E1688847D0
:1008D000012F054618D1E069002820DA26F020060D
:1008E0001DE0D8F8180000EB800005EB4000303820
:1008F000C8F818002046E1688847054603F00EF95D
:100900000028EED1012F0AD02E2D08D12046E16813
:1009100088477F1C0546022F46F02006C4DBA069ED
:10092000002803DA404246F00106A061F00701D03A
:1009300026F010066C2D0BD0682D09D04C2D39D027
:100940006A2D35D0742D35D07A2D33D016E038E0AD
:10095000E1682F4620468847B842054609D16C2FEA
:1009600026D04FF48060E16806432046884705465C
:1009700004E06C2F1AD04FF4807006430DB3A5F13C
:100980004100192802D8203546F400664A46294617
:10099000204626604E46FFF7E3FB80B101280BD0CE
:1009A000F61D26F0070000F1080956E74020E4E7AD
:1009B0008020D8E70020D6E706F104094DE7284655
:1009C00052E7206ABDE8F09F788900004FF00002EE
:1009D0000429C0F0128010F0030C00F09784CCF1D1
:1009E000040CBCF1020F18BF00F8012BA8BF20F8BF
:1009F000022BA1EB0C0100F089BC5FEAC17C24BF93
:100A000000F8012B00F8012B48BF00F8012B7047BC
:100A1000004870473001002030B5B0F10A024FEABB
:100A2000900E71F100034EEA817EB0EB0E0061EB97
:100A300091014FEA101E4EEA017E10EB0E0041EBD1
:100A400011114FEA102E4EEA016E10EB0E0041EB31
:100A500011214FEA104E4EEA014E10EB0E0041EB11
:100A60001141401841F100014FEAD00040EA4170C5
:100A70004FEAD10110EB80054FEA810444EA9074FB
:100A800044EB01046D1944EB0404521BA3414FF0E5
:100A9000000348BF0A3200D530BD401C41F10001BF
:100AA00030BD2DE9F0470D4699469246044600F1C7
:100AB00024080168880604D5E06921F0100121604E
:100AC00000E00120A84201DD471B00E00027A169EA
:100AD0007A1902EB0900081AA0612078C00602D436
:100AE0002046FFF7C1FC002608E0D4E901211AF8EE
:100AF00006009047206A401C761C20624E45F4DBBD
:100B00002078C0060AD52046FFF7AEFC06E0D4E9FF
:100B1000012130209047206A401C2062381EA7F136
:100B20000107F4DC07E0D4E9012118F8050090473B
:100B3000206A401C2062281EA5F10105F3DC204636
:100B4000FFF7A8FC2078000602D50220BDE8F08758
:100B50000120FBE770472DE9FF4F0C461E464FF082
:100B6000FF378BB0D2E90001DDF860800A908A4639
:100B7000C1F30A5505B93D46002108464FF0000073
:100B8000BAF1000F00F4400005DA00EB80004FF4EA
:100B9000400101EA50004FEA9059B9F1010F00DD20
:100BA000B9460A9850EA4A000ED044F61050A5F211
:100BB000FF3545432F14B8F1000F1ED07542291E92
:100BC0001EDDC9F100021CE0B8F1010F4FF000007A
:100BD00001D0302103E0F24305E02154401CB04233
:100BE000FBDB30460022002121540B99C1F808801C
:100BF000C1E900200FB0BDE8F08FBD1B6D1CDEE722
:100C00004A4600DA694206A800F01CFC06AB93E8ED
:100C1000070003AB83E8070050460A9900F0D4FCB4
:100C20008DE80700A0F500501F3800900398002DB4
:100C30000ADD42F21F014A460844002303A903903B
:100C4000684600F03DFF09E0A0F500504A461F3815
:100C5000002303A90390684600F047FF8DE80700D2
:100C60000004000C03D04FF0FF30410800E01046B4
:100C7000B8F1000F03D00022009215461EE0751E49
:100C800005D4FFF7C9FE303262556D1EF9D5B34663
:100C90000122084302D000227F1C04E02078302883
:100CA00001D100227F1E002A099784D01DE0112D5A
:100CB00007DAFFF7B1FE303262556D1C50EA0102CF
:100CC000F5D1084302D00098C8B10EE00021681E9B
:100CD00005E0235C625C63542254401E491C81423F
:100CE000F7DBAB46A81B401E0990002004F80B0060
:100CF0000B98099AC0F80880C0E9002B7AE7112602
:100D00004FF0000857E72DE9F04F88460446D21D02
:100D100022F0070191B0D1E90001CDE90A0102F00A
:100D200080FE02460B98C00F01D02D2007E02068FE
:100D3000810701D52B2002E0202101EAC000032A0F
:100D4000099001D0072A05DB03464146204600F002
:100D500039FB0BE12078800601D5E06900E0062030
:100D6000B8F1650F814606D0B8F1660F18D0B8F11A
:100D7000670F70D131E00020B9F1110F009001DB55
:100D8000112301E009F101030AAA01A90CA8FFF748
:100D9000E2FEDDE90C70002609F10105834647E01B
:100DA00001204B4600904FF000470AAA01A90CA869
:100DB000FFF7D1FEDDE90DB00C995D46002610B9B4
:100DC00009F101000D18B9EB050003D4C0F1FF369D
:100DD00009F10105A5EB09002BE0B9F1010F01DADA
:100DE0004FF001090020B9F1110F0090484601DDD4
:100DF000112300E003460AAA01A90CA8FFF7ABFEE5
:100E0000DDE90C704D4600268346207800070AD4A1
:100E1000AB4500DA5D4601A8012D04DD411911F84A
:100E2000011C302907D04F4502DA17F1040F04DA0C
:100E3000012082460FE06D1EEEE7002F02DCED1B65
:100E40003E4403E0781CA84200DD7D1CB81B00F185
:100E5000010A4FF000472078000703D4AA4501DBC0
:100E60004FF0FF3A0021B7F1004F0DF143088DF824
:100E7000431024D002202B23002F01DA7F422D23A0
:100E80000A21021EA0F1010000DC5FB197FBF1FC1A
:100E900097FBF1F201FB1C7C17460CF1300C08F8B3
:100EA00001CDEEE7A8F1010003702188090501D505
:100EB000452100E06521A0F1010800F8011C099816
:100EC0000FA9A1EB0807FF1D00B10120411901EB9B
:100ED000EA70A1693844081A401EA0612078C00653
:100EE00002D42046FFF7C0FA099828B1D4E90121BD
:100EF0009047206A401C20622078C00622D52046F8
:100F0000FFF7B2FA1EE0002E04DBB34502DD01A8B4
:100F1000805D00E03020D4E901219047206A401C28
:100F20002062761CAAF101005FEA000A0AD100F0F3
:100F300045FAC0680168405CD4E901219047206A05
:100F4000401C2062281EA5F10105DCDC07E0D4E985
:100F5000012118F8010B9047206A401C2062381EBE
:100F6000A7F10107F3DC2046FFF794FA032011B044
:100F700041E600002DE9F04F04460D46D21D22F057
:100F8000070089B0D0E900974846394602F049FD8C
:100F90000246F80F01D02D2307E02068810701D514
:100FA0002B2302E0202101EAC0038DF820300BB191
:100FB000012000E00020032A824601D0072A04DB3A
:100FC0002946204600F0FEF93FE12078800601D452
:100FD0000D2500E0E569C7F30A560D2D49DA002119
:100FE0004FEA175B08464FF00000002F00F4400066
:100FF00007DA00EB80004FF4400100EBD07001EA0B
:1010000060008115012901DD4FF0FF3100224FEA18
:10101000850CBCF1180F06D31346ACF118004FF045
:101020008052C24003E04FF4801323FA0CF30CF11A
:101030000C0CBCF1200F04D3ACF1200C09FA0CF01D
:1010400001E007FA0CF000294FF0004801DD18B963
:101050000FE00ED140450CD319EB02095F4121B9D5
:10106000404502D19F4329EA0209BBEB175F00D03C
:10107000761C2088000502D57B48784402E07A4837
:101080007844193808AA302302F80A30037C0AF1A0
:101090000101002E0AF1020A53546A4602DC4FF0A5
:1010A000300101E04FF031014FF001088DF80010E0
:1010B00002D0A6F2FF3603E059EA470100D06B4E9A
:1010C000002D02DC2178090704D54FF002082E21FB
:1010D0008DF80110C44600210BE0C7F303433F0124
:1010E000C35C491C6D1E02F80830052908F101088F
:1010F00001DA002DF1DC00210CE000EB1973491C32
:101100001B786D1E082902F808304FEA091908F10A
:10111000010801DA002DF0DC21688B0602D516E00B
:10112000A8F10108E04505DD02EB080313F8013CD6
:10113000302BF5D0B8F1000F09DD02EB080313F8EE
:10114000013C2E2B03D1090701D4A8F10108002D81
:1011500005DD3E2102F808106D1E08F10108407CF3
:10116000002E02F8080008F1010804DA2D2076426A
:1011700002F8080002E02B2002F808000A214FF4D0
:101180007A70864208F101080BDB96FBF0F33033EE
:1011900002F8083096FBF0F308F1010800FB136633
:1011A00001E0642E0CDB642096FBF0F3303302F890
:1011B000083096FBF0F308F1010800FB136601E02C
:1011C0000A2E06DB96FBF1F0303002F8080008F139
:1011D000010896FBF1F001FB1060303002F80800C6
:1011E000A16908F1010808EB050202EB0A00081AE0
:1011F000A0612078C00602D42046FFF735F9216AA5
:1012000008AE01EB0A00206204E0D4E9012116F8DF
:10121000010B9047BAF1010AF7D22078C00602D537
:101220002046FFF721F96E4609E016F8010B3E282B
:101230000FD0D4E901219047206A401C2062B8F108
:101240000108F2D22046FFF725F909B00320BDE8D6
:10125000F08F206A2844206203E0D4E90121302085
:1012600090476D1EEBD3F8E71D82000002FCFFFFE4
:1012700010B5436913B1AFF3008001E0FFF72DF91A
:10128000012010BD127800F124010A7000224A707A
:101290000122EDE711684FF0FF32E9E710B543692D
:1012A00013B1AFF3008001E0FFF7AEF9012010BDEC
:1012B000128800F1240182840022C2840122EDE719
:1012C00011684FF0FF32E9E770B516460C46054647
:1012D00000F06CF8036893F80101012806D0FF2C98
:1012E0000FD8185D68B101202C7070BDD3F80701CC
:1012F0003246214603F2071303442846BDE87040F6
:1013000018474FF0FF3070BD4FF0000200B5134694
:1013100094469646203922BFA0E80C50A0E80C5015
:10132000B1F12001BFF4F7AF090728BFA0E80C50C6
:1013300048BF0CC05DF804EB890028BF40F8042BBF
:1013400008BF704748BF20F8022B11F0804F18BF2C
:1013500000F8012B70470000004870473001002062
:101360007546FFF7F9FFAE4605006946534620F083
:101370000700854618B020B5FEF76AFFBDE820409B
:101380004FF000064FF000074FF000084FF0000B41
:1013900021F00701AC46ACE8C009ACE8C009ACE8F4
:1013A000C009ACE8C0098D467047000010B500F0D8
:1013B00005F8001D10BD00BFBD5800000048704773
:1013C000500100202DE9F0411F4604460326016824
:1013D000072A01F4006004DB08B116A505E016A594
:1013E00003E008B115A500E015A521F0100020606C
:1013F000A069C01EA0610FB1401EA0612046FFF78A
:1014000033F84FB1D4E9012138469047206A401C97
:101410002062C01C206206E0206AFAE7D4E90121BC
:1014200015F8010B9047761EF8D22046FFF732F8E8
:10143000BDE8F0814E414E006E616E00494E46009F
:10144000696E66002DE9F047814616468AB0354838
:1014500078440DC88DE80D0032487844801C03ACF8
:101460000DC884E80D0041F69B300844372190FBFD
:10147000F1F290FBF1F5A5F1800501FB12041B3C94
:1014800002D56442012000E00020DFF898A08046E9
:101490000027FA44AAF1BE0A0EE0E0070AD032465D
:1014A000684607EB470101230AEB810100F01DFBB1
:1014B0008DE8070064107F1C002CEED1194F7F448B
:1014C000AE3F19E0E80715D007EB04100DF1180A3C
:1014D00090E80E008AE80E00C068F04201D1981929
:1014E00008903246012306A903A800F0FEFA03ABD8
:1014F00083E807006D10641C002DE3D14FF0010359
:1015000032466946B8F1000F03A802D000F0D8FABD
:1015100001E000F0EAFAC9E90001C9F808200AB0C0
:10152000BDE8F087D87E000010B50446AFF3008018
:101530002046BDE81040FEF776BE00004FF0013CAB
:1015400050F8042B51F8043B9A4221D1A2EB0C0332
:10155000934313EACC1317D150F8042B51F8043BF2
:101560009A4215D1A2EB0C03934313EACC130BD18F
:1015700050F8042B51F8043B9A4209D1A2EB0C031A
:10158000934313EACC13DBD04FF00000704700BF49
:10159000D01A01BAB1FA81F101F0180122FA01F072
:1015A000CB40C1F12001DBB2C0B2C01A2CFA01F36A
:1015B000D11A914311EAC311E6D1704701491820AD
:1015C000ABBEFEE7260002005FEA400C08BF91F0C8
:1015D000000F4FEA8C234FEAC12243EA51514FEAF0
:1015E0001C5018BF00F5F0404FEA300018BF41F022
:1015F00000415FEA6C5C00F02980BCF1FF3F08BF4E
:1016000040F080407047130C06BF12044FF0100CDE
:101610004FF0000C130E04BF12020CF1080C130F54
:1016200004BF12010CF1040C930F04BF92000CF1E3
:10163000020CD30F04BF52000CF1010C11464FF005
:101640000002A0F11F00A0EB0C00704711F0004F4A
:1016500008BF704731F000413FF4D5AF0B0C06BF17
:1016600009044FF0100C4FF0000C0B0E04BF0902E0
:101670000CF1080C0B0F04BF09010CF1040C8B0FCB
:1016800004BF89000CF1020CCB0F04BF49000CF120
:10169000010CCCF12003A0EB0C0022FA03F302FAB8
:1016A0000CF241EA030100F10100704720F07F4C89
:1016B00080EA030023F07F47ACEB070303F57C537C
:1016C00000F0004003F1FF032DE980494FEA154B7C
:1016D00009B44FEA144325EA0B4E24EA03480FF2FB
:1016E000042606EB132749083E785FEA320203FB23
:1016F0000667C7F5000707FB06F64FEA54374FEABF
:10170000D64606F1020607FB066CCCF1005C4FEAF8
:101710001C472CEA074C07FB06F40CFB06F504EB10
:1017200015464FEA961634BF00204FF000404FEAAE
:10173000D13706FB07FC4FEA1C4C0CFB0BF7D21B06
:1017400003FB0CF761EB07010CFB0EF7B0EB074056
:1017500072EB17420CFB08F734BFA2EB0742B2EB67
:10176000074261EB17414FEA0C444FEA910706FB31
:1017700007FC4FEA1C4C0CFB0BF7B0EBC74072EBBD
:10178000573203FB0CF734BFA2EBC742B2EBC742A0
:1017900061EB57310CFB0EF7B0EBC70072EB5772E1
:1017A0000CFB08F734BFA2EBC702B2EBC70261EB38
:1017B0005771039F4FEA816141EA921104EBCC0417
:1017C0004FEAD1374FEA826206FB07FC42EA9012E9
:1017D0004FEA80604FEA1C4C0CFB0BF7D21B03FB5B
:1017E0000CF761EB07010CFB0EF7B0EB074072EB57
:1017F00017420CFB08F734BFA2EB0742B2EB0742DB
:1018000061EB17414FEA8C554FEA910704EB9C249A
:1018100006FB07FC4FEA1C4C0CFB0BF7B0EBC74078
:1018200072EB573203FB0CF734BFA2EBC742B2EBAB
:10183000C74261EB57310CFB0EF7B0EBC70072EB00
:1018400057720CFB08F734BFA2EBC702B2EBC7021A
:1018500061EB577115EB4C254FEA816141EA92111A
:101860004FEA82624FEAD13742EA901206FB07FC48
:1018700044F100044FEA80604FEA1C4C0CFB0BF76C
:10188000D21B03FB0CF761EB07010CFB0EF7B0EB6F
:10189000074072EB17420CFB08F734BFA2EB07427C
:1018A000B2EB074261EB174115EB1C154FEA813192
:1018B00041EA92414FEA823242EA90424FEA803056
:1018C0004FEA0C7644F1000448EA03434EEA0B4821
:1018D0004FF0000EB2EB080C71EB030724BF624619
:1018E00039464EEB0E0E4FF0000B001852414941A5
:1018F0004BEB0B0BB2EB080C71EB03077BF1000B0E
:1019000024BF624639464EEB0E0E4FF0000B001816
:10191000524149414BEB0B0BB2EB080C71EB030747
:101920007BF1000B24BF624639464EEB0E0E51EAA6
:10193000020718BF46F0010616EB0E7655F10002BD
:1019400054F1000103D5BDE88901BDE80088BDE878
:101950008901BDE80048B619524141EB0101A3F1EC
:101960000103704780807F7E7D7C7B7A79787776F3
:1019700076757473727171706F6E6E6D6C6C6B6A6C
:101980006A6968686766666564646363626161600A
:10199000605F5F5E5E5D5D5C5C5B5B5A5A59595887
:1019A00058575756565555555454535352525251F1
:1019B000515050504F4F4F4E4E4D4D4D4C4C4C4B47
:1019C0004B4B4A4A4A49494948484847474747468E
:1019D00046464545454444444443434343424242CA
:1019E00042414141002B9C4630D477002BD01CB59E
:1019F0004FEA370703B44FF010004FF01001BAF16F
:101A0000000F06D0BCF1000FDCBF40F0080040F032
:101A100008014FF000000FBCBDE810400BF1010BB6
:101A2000BBF1010F08BF5FEA170722BF12F10102E5
:101A300011F101014FF0004143F1000300F00040BB
:101A400043EA00007047F9D35708D0E746EA064654
:101A500013F1400F4FEA16461FDD13F1200FDFBFD1
:101A600016430A46002120335B42BED0C3F1200753
:101A700046EA064602FA07F74FEA164646EA07061E
:101A8000C3F1200722FA03F201FA07F721FA03F162
:101A90004FF0000342EA0702A7E746EA020646EAD9
:101AA00006464FEA164646EA0106BCBF46EA064627
:101AB000360C4FF000034FF000024FF0000194E7A6
:101AC0002DE9804C9A46934670B491E8380007C8D7
:101AD00031EA400C48BF34EA430C03D5FFF7E6FD7A
:101AE000FFF780FFF0BCBDE8008C2DE9804C9A46E2
:101AF000934670B491E8380007C810F0804F08BFD3
:101B000013F0804F03D100F005F8FFF76BFFF0BC36
:101B1000BDE8008C20F07F4780EA030023F07F4C73
:101B200007EB0C03A3F57C5300F00040A3F1FE0388
:101B300092F0000F00F0B38095F0000F00F0778076
:101B40002DE901494FEA11404FEA144621EA0048C5
:101B500000FB06FC24EA064708FB06F607FB08F82C
:101B600000FB07F718EB06484CEB164C4FEA124BFC
:101B700018EB07484FEA15464CEB174022EA0B4E8C
:101B80000BFB06FC25EA06470EFB06F607FB0EFEDE
:101B90000BFB07F71EEB064E4CEB164C4FF0000606
:101BA0001EEB074E4CEB174B18EB0B0840F10000F7
:101BB00018EB0E0B58EB000840F100008F1A4FF0A5
:101BC00000013CBFC943661B14BFB5EB040C0021E8
:101BD0003CBFC943F61B4FEA17444EEA8E0E27EA74
:101BE00004454FEA1C4704FB07622CEA074C05FB3F
:101BF00007F70CFB05F604FB0CFC16EB074642EB63
:101C0000174216EB0C4642EB1C421BEB060658EB48
:101C10000202414146EA9E0601D5BDE80189B61996
:101C2000524141EB0101A3F10103BDE801894FEAF3
:101C300014454FEA114724EA054621EA074C05FB03
:101C400007F406FB07F70CFB06F105FB0CFC11EB98
:101C5000074144EB17444FEA124711EB0C4144EBA8
:101C60001C4422EA074C05FB07F206FB07F70CFBB6
:101C700006F605FB0CFC16EB074642EB174216EB8B
:101C80000C4642EB1C456A1854F1000148BF7047EE
:101C9000B619524141EB0101A3F10103704795F0E0
:101CA000000F37D04FEA11424FEA144721EA0246AB
:101CB00024EA074C02FB07F106FB07F70CFB06F4CE
:101CC00002FB0CFC14EB074441EB17414FEA1547AC
:101CD00014EB0C4441EB1C4125EA074C02FB07F5D1
:101CE00006FB07F70CFB06F602FB0CFC16EB07469F
:101CF00045EB174516EB0C4645EB1C42121951F10A
:101D0000000148BF7047B619524141EB0101A3F1F0
:101D1000010370474FEA14454FEA114724EA05468C
:101D200021EA074C05FB07F106FB07F70CFB06F25F
:101D30004FF0000605FB0CFC12EB074241EB17418C
:101D400012EB0C4251EB1C4148BF7047921841EB1B
:101D50000101A3F10103704710B54FF4805102480F
:101D600000F02DFA10BD0000000C014010B54FF43A
:101D70008051024800F025FA10BD0000000C01401F
:101D800010B54FF40051024800F019FA10BD0000E0
:101D9000000C014010B54FF40051024800F011FA58
:101DA00010BD0000000C014010B54FF48041024806
:101DB00000F005FA10BD0000000C014010B54FF412
:101DC0008041024800F0FDF910BD0000000C014008
:101DD00010B54FF40041024800F0F1F910BD0000C9
:101DE000000C014010B54FF40041024800F0E9F941
:101DF00010BD0000000C014000BFFEE7704700006E
:101E00002DE9FC47444B454A4549464800F00EFA47
:101E100044480068444908604448006844490860F0
:101E200000F0E0FF044600F0EBFF204400B241491F
:101E300008803F4801683C48006804F0BDFE054644
:101E40003D48006805F0D0FD044621463948B0F908
:101E5000000004F03BFE05EB0009304801683748FC
:101E6000006805F065FF804605F02EFC04460D462F
:101E70003348006805F028FC06462748B0F90400FE
:101E800022462B460090304604F0DEFDA9EB000010
:101E90002C490860264801682348006804F08CFE3D
:101EA00005462548006805F09FFD04462146214867
:101EB000B0F9000004F00AFE05EB000917480168BC
:101EC0001E48006805F034FF804605F0FDFB04461F
:101ED0000D461B48006805F0F7FB06460E48B0F9B2
:101EE000040022462B460090304604F0ADFD4844E5
:101EF0001549086000F06EF914481549154B164A4B
:101F0000CDE900101549044802F098FB4FF48050C9
:101F100000F026F8BDE8FC87EC0000209C000020C3
:101F20009800002094000020BC000020C400002085
:101F3000C0000020DA000020C8000020CC000020F3
:101F4000D0000020DC000020E0000020FA0000208B
:101F5000F8000020E800002020010020F20000200E
:101F60000149086070470000140401400021234922
:101F70008279002A3AD00A46126803689A430B46CF
:101F80001A600A1D126803689A430B1D1A600279D1
:101F900011440A6803681A430A60184A0832126832
:101FA00003689A43154B08331A601A1D12680368B8
:101FB0009A43124B0C331A604279102A0ED11A1F21
:101FC000126803681A430D4B08331A601A1D126811
:101FD00003681A43094B0C331A600DE00749427934
:101FE00011440A6803681A430A6005E00279114443
:101FF0000A6803689A430A607047000000040140C1
:1020000030B500228B071C0F0F2303FA04F20B4B91
:102010008C1053F824309343084C8D1044F825302D
:1020200023468C1053F824308C07240F00FA04F454
:102030002343024C8D1044F8253030BD0800014088
:102040002DE9F0410246002500260020002300244F
:10205000002791F803C00CF00F0591F803C00CF0B5
:10206000100CBCF1000F03D091F802C04CEA05053A
:1020700091F800C0BCF1000F31D0146800202BE0B3
:102080004FF0010C0CFA00F3B1F800C00CEA0306A3
:102090009E4220D183004FF00F0C0CFA03F7BC4393
:1020A00005FA03FC4CEA040491F803C0BCF1280FC4
:1020B00006D14FF0010C0CFA00FCC2F814C00AE083
:1020C00091F803C0BCF1480F05D14FF0010C0CFA98
:1020D00000FCC2F810C0401C0828D1D31460B1F82D
:1020E00000C0BCF1FF0F34DD546800202EE000F189
:1020F000080C4FF0010808FA0CF3B1F800C00CEA24
:1021000003069E4221D183004FF00F0C0CFA03F717
:10211000BC4305FA03FC4CEA040491F803C0BCF18B
:10212000280F05D100F1080C08FA0CF8C2F8148049
:1021300091F803C0BCF1480F07D100F1080C4FF033
:10214000010808FA0CF8C2F81080401C0828CED309
:102150005460BDE8F08100001CB50121082000F0AA
:10216000C7FD10208DF807004FF47040ADF8040053
:1021700003208DF8060001A90A48FFF761FF01213D
:10218000102000F0B5FD00208DF803004FF4204032
:10219000ADF8000003208DF8020001A90248FFF706
:1021A0004FFF1CBD000C0140001001400246002002
:1021B00093680B400BB1012000E0002070474161A3
:1021C0007047016170470AB1016100E041617047E9
:1021D00000BFFEE712480068B0F5E15F04DB41F69E
:1021E0001F400F49086007E00D48006810F5E15FE7
:1021F00002DC0C480A4908600B480068B0F5E15F52
:1022000004DB41F61F400849086007E00648006803
:1022100010F5E15F02DC03480349086070470000E5
:10222000DC000020E1E3FFFFE00000202DE9F04F9B
:1022300099B004460D4616461F464FF07E584FF0A3
:1022400000094FF0000A4FF0000B14A815A918ABB5
:1022500010AACDE9001016A9384602F0EFF9BDF832
:10226000540000F4807000287ED0109805F0F8FB30
:102270004FF09D410F9005F0C1FA8046119805F08E
:10228000EFFB4FF09D410F9005F0B8FA8146129890
:1022900005F0E6FB4FF09D410F9005F0AFFA824646
:1022A000139805F0DDFB4FF09D410F9005F0A6FA65
:1022B000834641464FF0804005F032FC514606907F
:1022C00005F02EFC494608904FF0404005F028FCF0
:1022D0005946069005F024FC0790089905F020FA6D
:1022E000099005F0F1F9CDE90A0101F073FC4FF016
:1022F0006632534BCDE90C0104F00CFFCDE90E0121
:1023000004F0CEFC206051464FF0804005F008FC00
:102310005146039005F004FC494605904FF04040BB
:1023200005F0FEFB4946039005F0FAFB0490059981
:1023300005F0FEFC4FF07E51069005F0F1F9079094
:1023400005F0C2F9CDE90A0141464FF0804005F0A1
:10235000E7FB4946049005F0E3FB514606904FF039
:10236000804005F0DDFB00E067E05946049005F091
:10237000D7FB0590069905F0D3F9079005F0A4F96D
:10238000CDE90801DDE90A2301F06CFE4FF0663269
:102390002B4BCDE90C0104F0BDFECDE90E0104F09C
:1023A0007FFC28605946584605F0BAFB5146069016
:1023B000504605F0B5FB49460490484605F0B0FB91
:1023C00041460290404605F0ABFB0190029905F0B2
:1023D000A7F90390049905F0ABFC0590069905F068
:1023E000A7FC079005F070F9CDE90A01594640466F
:1023F00005F096FB51460590484605F091FB049088
:10240000059905F08DF94FF08041069005F088FBA5
:10241000079005F059F9CDE90801DDE90A2301F03B
:1024200021FE4FF06632064BCDE90C0104F072FE3E
:10243000CDE90E0104F034FC306019B0BDE8F08F36
:1024400066A64C4010B500F025F803F0E5FAE0B9B7
:10245000782004F0C1F8782003F0CCF9642004F06F
:102460006DF802F0DFF80A4803F062F8044602F063
:1024700031FB40F2731001F07DFF642002F05AFA44
:1024800004F05CF9012003F055FF002010BD0000AE
:102490005800002008B50C200623042201020090F9
:1024A000044800F045F90120034908600349C1F8D8
:1024B000AC0108BD000C0140A881214200802142EE
:1024C00010B5002400F054F801200F4908600420E2
:1024D00001F00CFF01200D49C1F8A801042001F012
:1024E00005FF07E0601CC4B2FA2C03DD00F0C4F85D
:1024F000012010BD0448803800680028F2D102494C
:10250000091F086000BFF4E7AC812142008021422E
:1025100070B50646002400F02BF8002516E00020D8
:1025200011490860042001F0E1FE01200F49C1F8C3
:10253000A8016006040E0C487C38006808B1601CD5
:10254000C4B2042001F0D2FE681CC5B2082DE6DB3F
:10255000002005490860042001F0C8FE304600F064
:1025600021F8204670BD0000A88121420080214250
:1025700008B50C20072300224FF4006100900248A8
:1025800000F0D6F808BD0000000C014008B50C2092
:102590000623042251020090014800F0C9F808BD4A
:1025A000000C014010B50446FFF7F0FF0020094978
:1025B00008600948C0F8AC41042001F097FE0120F2
:1025C00004490860042001F091FE00200249C1F88E
:1025D000A80110BDA88121420080214270B50446A7
:1025E000FFF7D4FF00201449086000251EE0E00931
:1025F00020B101201049091D086003E000200E49A8
:10260000091D08606006040E042001F06FFE012021
:1026100009490860042001F069FE00200749C1F85B
:10262000A801042001F062FE681CC5B2082DDEDBA3
:10263000FFF746FF70BD0000A881214200802142C3
:1026400010B5FFF7A3FF0120094908600949C1F847
:10265000A801042001F04AFE00200549086004207A
:1026600001F044FE00200349C1F8A80110BD00009C
:10267000AC8121420080214210B5FFF787FF002086
:102680000A4908600A49C1F8AC01042001F02EFE95
:10269000012006490860042001F028FE01200449B9
:1026A000C1F8AC01042001F021FE10BDA881214237
:1026B000008021421FB50121042000F019FB0121F7
:1026C000084600F015FB4FF48050ADF8000048209C
:1026D0008DF8030069461448FFF7B2FC0C21002076
:1026E000FFF78EFC4FF48050029000208DF80C0014
:1026F0000C208DF80D0001208DF80E0002A8FFF7C8
:1027000035FC4FF4806000F0A5F828208DF8040017
:1027100000208DF805008DF8060001208DF80700D7
:1027200001A800F05FF81FBD0008014000BFFEE7F0
:102730002DE9F84380460F4614461D46089E27485B
:10274000A8EB0000022202EB9021104603F0ECFF00
:102750008146012100F0CCFAADF80070012C02D1C5
:1027600000208DF8030024B9062D02D104208DF835
:10277000030024B9082D02D128208DF8030024B9C4
:10278000072D02D148208DF80300022C02D114201D
:102790008DF80300042C02D110208DF80300032CC7
:1027A00002D11C208DF80300052C02D118208DF8D1
:1027B0000300092E02D102208DF802000B2E02D157
:1027C00001208DF802000C2E02D103208DF80200AA
:1027D00069464046FFF734FCBDE8F8830008014035
:1027E0007047000070B5002100230F22C47804B3A5
:1027F000154C246804F4E064C4F5E064210AC1F1D6
:102800000403CA40447804FA03F184781440214355
:1028100009010E4C0678A155047804F01F05012427
:10282000AC4005786D11AD0005F1E025C5F800411B
:1028300009E0047804F01F050124AC40044D06783B
:10284000761145F8264070BD0CED00E000E400E094
:1028500080E100E002490143024A11607047000034
:102860000000FA050CED00E070B500240EE0002138
:10287000204600F0EFF8002504E0002000F0A3F966
:10288000681CC5B2802DF8DB601CC4B2082CEEDBDE
:1028900070BD000008B50121082000F029FA1420BD
:1028A0008DF8030003208DF802004FF48070ADF81E
:1028B000000069460A48FFF7C3FB4FF40070ADF80B
:1028C000000069460648FFF7BBFB012211020448DD
:1028D000FFF779FC012251020148FFF774FC08BDA3
:1028E000000C014070B50546002415E08020204111
:1028F00000EA05024FF400710E48FFF764FC012264
:1029000011020C48FFF75FFC00224FF48071094868
:10291000FFF759FC601CC4B2082CE7DB012211024E
:102920000448FFF750FC00224FF480710148FFF784
:102930004AFC70BD000C014010B5012251020A484A
:10294000FFF741FC012211020748FFF73CFC00227F
:102950004FF400710448FFF736FC00224FF48071F9
:102960000148FFF730FC10BD000C014010B50022FB
:102970004FF400710648FFF726FC012211020448BB
:10298000FFF721FC012251020148FFF71CFC10BD9A
:10299000000C014070B5002405E0002500E06D1C2E
:1029A000642DFCD3641CB4F57A7FF6D3FFF772FF75
:1029B000AE2000F0F8F8D52000F0F5F8802000F007
:1029C000F2F8A82000F0EFF83F2000F0ECF8D32058
:1029D00000F0E9F8002000F0E6F8402000F0E3F80D
:1029E000A12000F0E0F8C82000F0DDF8DA2000F0C7
:1029F000DAF8122000F0D7F8812000F0D4F8CF20C8
:102A000000F0D1F8D92000F0CEF8F12000F0CBF89A
:102A1000DB2000F0C8F8302000F0C5F8A42000F05A
:102A2000C2F8A62000F0BFF88D2000F0BCF81420FA
:102A300000F0B9F8AF2000F0B6F8FFF715FF70BD51
:102A400010B50246012000E050430B1EA1F1010128
:102A5000FAD110BD70B505460C4645F0B00000F047
:102A6000A2F8102141EA141000F09DF804F00F00C4
:102A700000F099F870BD00002DE9F04105460E46C2
:102A80001746721ED206110E6A1E5206100EFFF76E
:102A9000E1FF002409E0A7F12001134A02EB011134
:102AA000085D00F090F8601CC4B2082CF3DB721EC5
:102AB000D206110E6A1E012303EB4202D0B2FFF7C9
:102AC000C9FF00240BE0A7F12001074A02EB011225
:102AD00004F10801505C00F076F8601CC4B2082CC8
:102AE000F1DBBDE8F08100005A8B00082DE9F047CA
:102AF00081460E4690461F4600241DE0381B411EAD
:102B00001020FFF79DFFB8FBF0F000F00F050A2D35
:102B100008DA05F13000C2B23019C1B24846FFF7F9
:102B2000ABFF07E005F13700C2B23019C1B2484629
:102B3000FFF7A2FF601CC4B2BC42DFDBBDE8F08738
:102B40002DE9F0478146884615461E46002D06DBD6
:102B50002B2241464846FFF78FFF2F4605E02D22E6
:102B600041464846FFF788FF6F42002417E0301BBC
:102B7000411E0A20FFF764FFB7FBF0F00A21B0FB0B
:102B8000F1F201FB120000F1300A08EB0400401CD6
:102B9000C1B252464846FFF76FFF601CC4B2B44250
:102BA000E5DBBDE8F08710B50446FFF7C5FE7820E9
:102BB000FFF798FE0020FFF795FE2046FFF792FEF4
:102BC000FFF7D4FE10BD10B50446FFF7B5FE782020
:102BD000FFF788FE4020FFF785FE2046FFF782FEC4
:102BE000FFF7C4FE10BD000000B589B00121084602
:102BF00000F06EF80121042000F07AF818208DF81A
:102C000023000320ADF820008DF8220008A92648F3
:102C1000FFF716FA4FF0804000F078FC0020ADF886
:102C20001A00ADF8160041F61F40ADF8180000205C
:102C3000ADF814008DF81C0005A94FF0804000F09D
:102C40005DFD01A800F01DFD6020ADF8040000202E
:102C5000ADF80C000120ADF806000020ADF80A0028
:102C600001A94FF0804000F057FC0821C80600F091
:102C70009FFC6020ADF804000020ADF80C0001209E
:102C8000ADF806000020ADF80A0001A94FF0804021
:102C900000F098FC0821C80600F0E6FC0121880736
:102CA00000F08BFB09B000BD0008014010B50446E0
:102CB00021464FF0804000F0EEFC10BD10B50446F8
:102CC00021464FF0804000F0E8FC10BD7047000046
:102CD00029B1064AD2690243044BDA6104E0034A8F
:102CE000D2698243014BDA61704700000010024054
:102CF00029B1064A92690243044B9A6104E0034AEF
:102D000092698243014B9A617047000000100240B3
:102D100030B500210022002400232D4D6D6805F000
:102D20000C0121B1042905D0082923D105E0294D42
:102D3000056022E0274D05601FE0254D6D6805F414
:102D40007012234D6D6805F48034022505EB924224
:102D50001CB9214D554305600BE01D4D6D6805F410
:102D600000351DB11C4D5543056002E0194D55431A
:102D7000056002E0174D056000BF00BF144D6D688F
:102D800005F0F0010909154D6B5C0568DD404560F3
:102D90000F4D6D6805F4E061090A104D6B5C4568E4
:102DA000DD4085600A4D6D6805F46051C90A0B4D20
:102DB0006B5C4568DD40C560054D6D6805F44041BC
:102DC000890B074D6B5CC568B5FBF3F5056130BD3C
:102DD0000010024000127A0000093D00140000209B
:102DE0002400002010B50548008804B200210348E3
:102DF000243800F054FC204610BD0000240400409C
:102E000010B5054800F006FB04B20021024800F0AE
:102E100046FC204610BD000000080040704700003E
:102E200000B587B001218803FFF762FF012104206C
:102E3000FFF75EFF18208DF81B004FF40070ADF80F
:102E4000180003208DF81A0006A92148FFF7F8F8AA
:102E500048208DF817004FF48060ADF8140003206F
:102E60008DF8160005A91A48FFF7EAF84FF4165036
:102E700001900020ADF810000C20ADF80E000020ED
:102E8000ADF80C00ADF80A00ADF8080001A9114832
:102E900000F050FD012240F225510E4800F024FDC3
:102EA0004FF4A060FFF7D6FC25208DF8000001202C
:102EB0008DF803008DF801008DF802006846FFF7D9
:102EC00091FC0121034800F0CCFC07B000BD0000DC
:102ED00000080140003801400FB400B59BB01DA8A8
:102EE000019002A8019A1C99FDF7F2F900200190C7
:102EF00002A800F013F81BB05DF814FB10B50446EF
:102F00002146054800F087FD00BF8021024800F0FF
:102F1000B4FC0028F9D010BD0038014070B504465B
:102F2000002504E0605DFFF7E9FF681CC5B2605D45
:102F30000028F7D170BD10B500F002F810BD0000F8
:102F40000CB50020019000903348006840F48030B8
:102F50003149086000BF3048006800F4003000903C
:102F60000198401C0190009818B90198B0F5A06F25
:102F7000F1D12948006800F4003010B10120009020
:102F800001E0002000900098012843D12348006808
:102F900040F01000214908600846006820F0030056
:102FA00008600846006840F0020008601A4840685F
:102FB000194948600846406848600846406840F43F
:102FC000806048600846406820F47C1048600846ED
:102FD000406840F4E81048600846006840F080709F
:102FE000086000BF0C48006800F000700028F9D0AD
:102FF0000948406820F003000749486008464068D7
:1030000040F00200486000BF0348406800F00C0038
:103010000828F9D10CBD0000001002400020024039
:10302000042808D14FF0E021096941F004014FF074
:10303000E022116107E04FF0E021096921F004016D
:103040004FF0E022116170477047000010B513483F
:10305000006840F0010011490860084640681049C6
:1030600008400E494860084600680E4908400B4970
:1030700008600846006820F4802008600846406820
:1030800020F4FE0048604FF41F008860FFF753FFF4
:103090004FF000600449086010BD000000100240BD
:1030A0000000FFF8FFFFF6FE08ED00E0F0B50C466B
:1030B000154600220021068C4FF6FE773E4006841E
:1030C000028B018C4FF60C7632407E1C06EA03160A
:1030D0002E433243104EB0420ED0104EB0420BD0B1
:1030E000B0F1804F08D00E4EB04205D00D4EB04228
:1030F00002D00D4EB04206D14FF6FD76314044F07D
:103100000106314305E04FF6F576314044F0010603
:10311000314302830184F0BD002C014000340140A2
:103120000004004000080040000C0040F0B50C46D0
:103130001546002200210026078C4FF6EF7C07EA97
:103140000C070784028B018C4FF6FF7707EA041601
:1031500040F6FF473A404FF6FF7707EA03373A4316
:103160004FF6FF7707EA05273A43114FB8420ED0D2
:10317000104FB8420BD0B0F1804F08D00E4FB8427C
:1031800005D00E4FB84202D00D4FB84206D14FF6CF
:10319000DF77394046F01007394305E04FF65F7797
:1031A000394044F01007394302830184F0BD000028
:1031B000002C0140003401400004004000080040A1
:1031C000000C0040F0B50C461546002200210026F8
:1031D000078C4FF6FF6C07EA0C070784828B018C83
:1031E0004FF6FF7707EA04264FF60C773A404FF682
:1031F000FF7707EA03172F433A43114FB8420ED027
:10320000104FB8420BD0B0F1804F08D00E4FB842EB
:1032100005D00E4FB84202D00D4FB84206D14FF63E
:10322000FF57394046F48077394305E04FF2FF57A6
:10323000394044F48077394382830184F0BD000033
:10324000002C014000340140000400400008004010
:10325000000C0040F0B50C46154600220021002667
:10326000078C4EF6FF7C07EA0C070784828B018CE3
:103270004FF6FF7707EA043640F6FF473A404FF62D
:10328000FF7707EA05273A434FF6FF7707EA033748
:103290003A43114FB8420ED0104FB8420BD0B0F1A4
:1032A000804F08D00E4FB84205D00E4FB84202D022
:1032B0000D4FB84206D14DF6FF77394046F480579E
:1032C000394305E047F6FF57394044F48057394306
:1032D00082830184F0BD0000002C014000340140D5
:1032E0000004004000080040000C004010B501211F
:1032F000064800F092F840B10121044800F05AF865
:1033000003480068401C0249086010BD002C0140C1
:103310007502000810B50121104800F07EF8012860
:103320001BD10E480088002101EA201030B10C4862
:103330000088401C00B20A4908800AE0074800885B
:10334000C0F3001028B106480088401E00B20449AE
:1033500008800121014800F02DF810BD0004004054
:10336000D600002010B50121104800F056F80128C1
:103370001BD10E480088002101EA201030B10C4812
:103380000088401C00B20A4908800AE0074800880B
:10339000C0F3001028B106480088401E00B204495E
:1033A00008800121014800F005F810BD0008004028
:1033B000D8000020CA430282704721B1028842F03F
:1033C0000102028004E002884FF6FE731A40028078
:1033D0007047F0B50C4615461E460021002200231A
:1033E0000189028B038C4FF6F877394021434FF661
:1033F000FC473A4040F201173A434FF6DD773B4035
:103400004FF6FF7707EA06172F433B4301810283FC
:103410000384F0BD0146888C704730B50246002019
:1034200000230024158A05EA0103958905EA0104B1
:1034300013B10CB1012000E0002030BD70B505468D
:103440000C46244885420ED0234885420BD0B5F166
:10345000804F08D02148854205D02148854202D0BE
:103460002048854200D100E000BF208850B9238960
:10347000A28861882846FFF719FEE188284600F0F7
:1034800010F925E0208804280AD12389A2886188C0
:103490002846FFF74BFEE188284600F00BF917E0BD
:1034A000208808280AD12389A28861882846FFF746
:1034B00089FEE188284600F00AF909E02389A288FC
:1034C00061882846FFF7C6FEE188284600F008F923
:1034D00070BD0000002C0140003401400004004099
:1034E00000080040000C00400021018041800121C3
:1034F00081800021C180018170471AB183890B430B
:10350000838102E083898B438381704701894FF671
:10351000F87211400181704770B500240022002329
:10352000058C4FF6FE7635400584028C8388048B2B
:103530004FF68F752C40B51E2C400D882C43751E00
:103540002A400D892A434D882A43144DA8420BD0A6
:10355000134DA84208D0134DA84205D0124DA842E1
:1035600002D0124DA84213D14FF6F7752A404D896B
:103570002A434FF6FB752A408D882A434FF6FF6594
:103580002B404FF6FF552B408D892B43CD892B4384
:1035900083800483CD888586028470BD002C014021
:1035A0000034014000400140004401400048014017
:1035B0000A460021018B4FF6F7731940114301832E
:1035C0007047000070B5002400220023058C4FF6E0
:1035D000EF7635400584028C8388048B48F6FF75AE
:1035E0002C404FF6FF452C400D884FF6FF7606EA3B
:1035F00005252C434FF6DF752A400D8906EA05158F
:103600002A434D8806EA05152A43154DA84202D0E3
:10361000144DA8421DD14FF67F752A404D894FF6B3
:10362000FF7606EA05152A434FF6BF752A408D88B6
:1036300006EA05152A434FF6FF352B404FF2FF757A
:103640002B408D8906EA85052B43CD8906EA850541
:103650002B4383800483CD880587028470BD0000DE
:10366000002C0140003401400A460021018B4FF23A
:10367000FF7319404FF6FF7303EA022319430183D6
:1036800070470021018041808180C180018141819A
:103690008181C1817047818670470187704781842D
:1036A0007047028B4FF6F3731A400283028B0A4372
:1036B00002837047028B4FF2FF331A400283028B62
:1036C0004FF6FF7303EA01231A4302837047828B8C
:1036D0004FF6F3731A408283828B0A4382837047CA
:1036E000828B4FF2FF331A408283828B4FF6FF7337
:1036F00003EA01231A4382837047000000220288F4
:103700001D4B98420ED01D4B98420BD0B0F1804F0C
:1037100008D01B4B984205D01A4B984202D01A4B46
:10372000984204D14FF68F731A404B881A43174BB7
:10373000984207D0164B984204D04FF6FF431A40E8
:10374000CB881A4302808B8883850B8803850A4BBC
:1037500098420BD0094B984208D00E4B984205D0A6
:103760000D4B984202D00D4B984201D10B7A038643
:103770000123838270470000002C01400034014087
:103780000004004000080040000C00400010004011
:103790000014004000400140004401400048014046
:1037A00010B520211E4800F068F8012837D11C48C8
:1037B00000F02CF91B4908801B48008848B90846CE
:1037C0000088012827D1184908800020174908805F
:1037D00021E015480088012812D1124801881348B9
:1037E00002880088401C114B1880114820F81210E4
:1037F0001846008804280EDB02200B4908800AE0E6
:1038000009480088022806D106480088022802D10B
:103810000020054908802021014800F019F810BD5A
:1038200000380140E40000200001002002010020D7
:103830001401002010B52021044800F02BF80128C5
:1038400003D12021014800F003F810BD00440040DE
:1038500001F40072B2F5007F00D100BFCA430280BC
:10386000704721B1828942F40052828104E082894A
:103870004DF6FF731A408281704702460020B1F571
:10388000007F00D100BF13880B400BB1012000E086
:103890000020704770B50246002400230025002058
:1038A00040F66A16B14200D100BFC1F3421501F0E3
:1038B0001F03012606FA03F3012D02D19689334036
:1038C00006E0022D02D1168A334001E0968A334089
:1038D0000C12012606FA04F41688344013B10CB118
:1038E000012000E0002070BDF0B503460024002652
:1038F0000025002040F66A17B94200D100BF1846E3
:10390000C1F3421401F01F06012707FA06F5012C46
:1039100001D10C3004E0022C01D1103000E0143051
:103920001AB107682F43076002E00768AF430760DA
:10393000F0BD00002DE9F04786B005460E46002494
:10394000A24600BFA1460027B08900B100BF2F46A4
:103950002C8A4CF6FF700440F08804432C82AC891A
:103960004EF6F3100440B08831890843718908434A
:103970000443AC81AC8A4FF6FF400440B089044355
:10398000AC8201A8FFF7C4F91F48874202D1DDF8D5
:1039900010A001E0DDF80CA0A88900F4004040B1BF
:1039A0000AEBCA0000EB0A1031684900B0FBF1F8DD
:1039B00007E00AEBCA0000EB0A1031688900B0FB8F
:1039C000F1F86420B8FBF0F004012009642101FB48
:1039D0001089A88900F4004040B1322000EBC900F2
:1039E000B0FBF1F000F00700044308E0322000EBE8
:1039F00009106421B0FBF1F000F00F0004432C81AA
:103A000006B0BDE8F0870000003801400146888814
:103A1000C0F308007047C1F308028280704700BFFE
:103A2000FEE7490050EAC12018BF04204A0D18BF24
:103A300040F0010040F2FF72B2EB515F08BF40F06E
:103A40000200012808BF052070472DE9F0414F1EF4
:103A500000EBC7010446D1E9000115461E4637F0C8
:103A600006020DD02A46334603F054FB7F1E04EBBA
:103A7000C703D3E9002303F045F937F00602F1D17B
:103A8000022F25D0042F13D0062F18BFBDE8F081D8
:103A90002A46334603F03EFBD4E90A2303F032F909
:103AA0002A46334603F036FBD4E9082303F02AF90B
:103AB0002A46334603F02EFBD4E9062303F022F90D
:103AC0002A46334603F026FBD4E9042303F01AF90F
:103AD0002A46334603F01EFBD4E9022303F012F911
:103AE0002A46334603F016FBD4E90023BDE8F04133
:103AF00003F008B9012204F0C6B903F003B90022AB
:103B000013461046114603F0ADB90000024A0020EA
:103B1000110704F0B8B9000001FDFFFF30380A2892
:103B200001D2012070470020704700002DE9FE4FB0
:103B300006460F460025684601F0E0F9002442E001
:103B400056F8240057F82410A0EB010ABAF1000F30
:103B500001DB514601E0CAF10001084603F080FF95
:103B600083464FF08F4103F049FE80465DF8240004
:103B7000002103F005FF16D05DF82410404603F045
:103B80003DFE82464FF07E5104F0D2F8814629F086
:103B9000004A0F48416A504604F08EF812D20120C4
:103BA000A04005430EE00A48C169404603F084FF87
:103BB00005D30748016A404604F07EF802D201208E
:103BC000A0400543641C032CBADB2846BDE8FE8FE9
:103BD0003C7F00082DE9F04D8D4F21F0004A86B062
:103BE00005460C46BA452ADBAAEB070028430AD053
:103BF0008848824501DC1AD1CDB106B02846BDE81F
:103C0000F04DFFF777BF844A844B284603F082FAD1
:103C100007460E46824A834B2846214603F07AFA2D
:103C200006B03A463346BDE8F04D03F06BB80120CC
:103C3000FCF714FC06B0BDE8F04DFFF760BF7A4812
:103C4000824542DABAF1795F0BDA2846FFF7E9FEDE
:103C5000042808BFFFF75AFF284606B02146BDE8F2
:103C6000F08D2A460B46104603F054FA834602466E
:103C70006E480E460B4606217844FFF7E6FE5A468C
:103C8000334603F047FA804669488A465A46334627
:103C900004217844FFF7D9FE5A46334603F03AFA36
:103CA00000223B4603F02EF802460B4640465146A2
:103CB00003F0D8F82A46234603F02CFA06B02A4629
:103CC0002346BDE8F04D03F01DB8284624F000411E
:103CD00000223D463B4603F01BFB4FF0FF3204F051
:103CE000D2F80646024653480F460B460621784452
:103CF000FFF7ABFE32463B4603F00CFACDE900017C
:103D00004D4832463B4604217844FFF79EFE32463A
:103D10003B4603F0FFF900222B4602F0F3FF8346F7
:103D200002913046394602F09BFD804643480D46DD
:103D3000504517DCDDE900015A46029B03F092F87A
:103D400042462B4603F0E6F942462B4602F0DAFFE4
:103D5000012204F098F8304A304B03F0CBFB304A94
:103D6000304B4CE04FF0000A52460B46404602F002
:103D7000C9FFCDE9031052462B461046194603F001
:103D8000C9F932463B4603F0C3FADDE9033203F0DA
:103D900069F806460F46DDE900015A46029B03F02A
:103DA00061F88346009101223046394604F06BF8F1
:103DB000194A1A4B03F0ACFA06460F460122404658
:103DC000294604F060F85A46009B03F0A3F93246F6
:103DD0003B4603F08FFB06460F460122504629461C
:103DE00004F051F80E4DDFF858802A46434603F0A0
:103DF0008FFA32463B4603F08BFA2A46434603F0DD
:103E000087FA002CD8BF81F0004106B0BDE8F08DE4
:103E10000000F03F0000F07F075C143326A6913CC1
:103E2000182D4454FB21F93F0000E03FD45400001A
:103E3000EA5400005E540000745400003333EF3F36
:103E4000FB21E93F2DE9F84F04460D4621F00040E3
:103E500000917349814211DC7249884201DC06D12C
:103E60002CB120462946BDE8F84FFFF743BE6E4807
:103E7000002DCCBF6D496E49BDE8F88F6D49814278
:103E800011DD6D498142D8BF4FF0FF366DDD204610
:103E90002946FFF7C6FD042808BFFFF737FE204676
:103EA0002946BDE8F88F6549654F25F000458142F8
:103EB00033DD6449814219DD002632464FF08043EC
:103EC0002046294602F01EFF80468A4601222046EF
:103ED000294603F0D8FF00223B4603F00BFB424685
:103EE000534602F0BFFF04460D463EE00126002285
:103EF000BA463B462046294602F004FF80460F465C
:103F0000002253462046294603F0F4FA42463B4637
:103F100002F0A8FF04460D4627E04B4981421BDD15
:103F2000DFF828A10226002253462046294603F046
:103F3000F1F800223B4602F0E5FE80460F460022E3
:103F400053462046294603F0D5FA42463B4602F046
:103F500089FF04460D4608E0032622462B46002032
:103F60003B4902F07FFF04460D4622462B46104691
:103F7000194603F0CFF88B46824602460B4603F003
:103F8000C9F807460246334888460B46062178445E
:103F9000FFF75BFD52465B4603F0BCF882462E48B5
:103FA0008B463A46434605217844FFF74EFD3A4694
:103FB000434603F0AFF802460B46002E50465946E2
:103FC0000CDA02F09FFE22462B4603F0A3F801B064
:103FD00022462B46BDE8F04F03F09AB902F092FE5C
:103FE00022462B4603F096F81C4A7A4402EBC6039D
:103FF000D3E9002303F07EFA22462B4603F07AFA37
:10400000174A7A4402EBC603D3E9002303F080F990
:10401000009A002AB8BF81F00041BDE8F88F000087
:10402000000010440000F07F182D4454FB21F93F9C
:10403000FB21F9BF0000DC3F0000203E0000F33F01
:104040000000F03F0000E63F008003400000F83F22
:104050000000F0BFBE5200007C5200001A52000067
:10406000E25100002DE9F04D9446CCF1000423F01C
:1040700000464CEA0404524F46EAD4749A468846F5
:1040800021F00042BC4206D8454240EA050442EA1B
:10409000D474BC4204D9BDE8F04D6246FFF72DBD93
:1040A000AAF14055A5F17F6555EA0C040BD0022416
:1040B00004EAAA74434DDFF810E144EAD87452EAE6
:1040C000000B04D00CE0BDE8F04DFFF7BBBE002CA8
:1040D00014BF012CBDE8F08D022C30D0032C32D05F
:1040E00056EA0C0B0AD0BE4220D1BA4209D126F0C2
:1040F000804622F080423346114617E000291ADB41
:1041000025E0DFF8C8B0FB44002C04BFDBE9000168
:10411000BDE8F08D012C02BFDBE9000181F0004118
:10412000BDE8F08D022C0AD0032C0CD0BA4212D17B
:10413000B8F1000F0BDA23482549BDE8F08D284679
:104140002449BDE8F08D28467146BDE8F08D1D4834
:104150002149BDE8F08D921B12153C2AC4BF1948B5
:104160001D490EDCBAF1000FBEBF12F13C0F00205A
:10417000014606DB624602F075FE21F00041FFF7C2
:1041800061FE002C08BFBDE8F08D012C04BF81F05A
:104190000041BDE8F08D114A114B022C07D003F00D
:1041A000A9F92A46BDE8F04D0A4B03F0A3B903F084
:1041B000A1F92A46BDE8F04D064B03F0A9B800006E
:1041C0000000F07F182D4454FB2109C076510000F7
:1041D000FB21F9BFFB210940FB21F93F075C1433A8
:1041E00026A6A13C10B5FDF7CBFDFDF7BFFDFDF701
:1041F000F9FDFDF7D9FD10BD2DE9F0410446E07849
:1042000000F0C006E07800F03F05607800F00100A3
:1042100098B1EF102846E91705EB5171C910A5EBCD
:10422000C101491C01F0FF080B48006820B10A4891
:10423000414602683846904700BF607800F00800A9
:1042400030B10548406818B1B011034A5168884739
:104250000020BDE8F08100000401002010B56FF0DF
:104260000400FEF7DDFE0A4800680A49B0FBF1F0E1
:10427000094908700846007800EB4001C1EBC01006
:104280004FF6FF7101EAC0000449088010BD00002C
:104290000000002000127A00280000202A000020E0
:1042A0000146114A12884A434FF0E0235A61002226
:1042B0009A611A46126942F001021A6100BF4FF07A
:1042C000E022106900F001021AB100F48032002AE5
:1042D000F5D04FF0E022126922F001024FF0E02306
:1042E0001A6100229A6170472A0000200146114A93
:1042F00012784A434FF0E0235A6100229A611A462D
:10430000126942F001021A6100BF4FF0E022106909
:1043100000F001021AB100F48032002AF5D04FF00B
:10432000E022126922F001024FF0E0231A6100221C
:104330009A6170472800002038B5044664B12020F7
:104340008DF8000028208DF8010030208DF8020043
:1043500038208DF8030004E0A32204216846FBF70F
:10436000F5FF6A46042140F69E2002F09DF901F017
:1043700087FD38BD3EB5044602208DF80000CA20F6
:104380008DF80100E3208DF8020009208DF803006C
:104390006A460421682002F087F9A3208DF8000006
:1043A00004F0400048B1C0208DF80100C8208DF80D
:1043B0000200C2208DF8030006E0A3208DF8010062
:1043C0008DF802008DF8030004F4C07048B1C420D9
:1043D0008DF80400CC208DF80500C6208DF806006D
:1043E00006E0A3208DF804008DF805008DF8060086
:1043F000A3208DF807008DF808008DF809006A46A3
:104400000A2140F6A72002F04FF904F0030018B18A
:1044100020208DF8000002E0D8208DF800006A46C8
:10442000012140F6B62002F03FF904F0200018B157
:10443000012000F0ADF802E0002000F0A9F804F43B
:10444000C07008B304F4807060B1B2208DF8000031
:104450008B208DF80100B6208DF802009B208DF88E
:1044600003000BE0B0208DF8000080208DF80100E3
:10447000B4208DF8020090208DF803006A460421D4
:1044800040F6A22002F010F904F0010020B3F82059
:104490008DF800006A4601214FF40B6002F004F928
:1044A000FA21072000F02AFC072000F0F1FB012090
:1044B00000F011FC642000F0F1FC4FF4FA7000F001
:1044C00000FDC821304800F0A1FB282000F0BAFB15
:1044D0000A2000F0CAFB08E0D8208DF800006A46E8
:1044E00001214FF40B6002F0DFF804F0020018B174
:1044F000D9208DF8000002E0D8208DF800006A462F
:10450000012140F23D7002F0CFF804F0040018B130
:10451000012000F069F802E0002000F065F804F0E6
:10452000100018B10120FFF707FF02E00020FFF79D
:1045300003FF44F008001549488101F0A1FC002068
:104540001249887304F0400018B10846807B801D32
:10455000887304F4C07020B10C48807B801D0B4927
:10456000887304F0140020B10848807B103007499C
:10457000887304F0030020B10448807B001D0349C8
:10458000887300203EBD000009E3CA020401002038
:104590003EB504466CB10EA1D1E900208968CDE991
:1045A000002002916A4609214FF4976002F07CF8DE
:1045B0003EBD0AA2D2E900109268CDE90102009145
:1045C0006A4609214FF4976002F06EF8F0E70000A8
:1045D000B8AAB38DB4980D355D000000B8AAAAAA98
:1045E000B088C3C5C700000038B5044664B1C02018
:1045F0008DF80000C2208DF80100C4208DF8020063
:10460000C6208DF8030004E08B2204216846FBF7E6
:104610009DFE6A46042140F6982002F045F801F01C
:104620002FFC38BD10B5C8234FF48062024940F614
:10463000F63001F0B9FA10BD647F00082DE9F04FA3
:104640008DB00746884615469B46DDE9166A00246C
:10465000002030806A49887B524605A901F070FB32
:1046600018B1601E0DB0BDE8F08F6548807A00F08B
:104670001400002867D09DF8140000069DF815105E
:1046800040EA01409DF8161040EA01209DF81710FD
:10469000084328609DF8180000069DF8191040EAAC
:1046A00001409DF81A1040EA01209DF81B100843B4
:1046B00068609DF81C0000069DF81D1040EA01404E
:1046C0009DF81E1040EA01209DF81F100843A860C5
:1046D0009DF8200000069DF8211040EA01409DF859
:1046E000221040EA01209DF823100843E86004F1FD
:1046F0001000C4B228680014019068680014029089
:10470000A86800140390E8680014049001984043DE
:10471000029901FB0100039901FB0100049901FBCF
:104720000109B9F1706F02DBB9F1885F05DD01F0B5
:10473000A7FB00203080401E94E7B6F9000040F44B
:104740008070308000BF2E48807A00F0400020B397
:1047500005A9601C085C095D40EA012000B2A8F8C8
:10476000000005A9E01C095C05AAA01C105C41EA38
:10477000002000B2A8F8020005A9601D095C201DF8
:10478000105C41EA002000B2A8F80400A01DC4B2E9
:10479000B6F9000040F0080030801948408900F464
:1047A000C07008B305A9601C085C095D40EA0120DF
:1047B00000B2388005A9E01C095C05AAA01C105CA9
:1047C00041EA002000B2788005A9601D095C201D27
:1047D000105C41EA002000B2B880A01DC4B2B6F956
:1047E000000040F0700030800548807A00F003003F
:1047F00018B105A90819FFF7FFFC002032E70000F7
:104800000401002070B588B0064601A801F050F8F8
:10481000BDF804000021C90341EA5045C4034448DF
:10482000007A00F0030056F8200005904048007A16
:1048300000F0040010B10598404205903C48007A11
:10484000C0F3C10056F8200006903948007A00F005
:10485000200010B10698404206903548007AC0F317
:10486000811056F8200007903148008900F48070CC
:1048700010B10798404207900598C117A0FB042388
:1048800001FB043100FB0510810041EA92700590A4
:104890000698C117A0FB042301FB043100FB05109F
:1048A000810041EA927006900798C117A0FB04238B
:1048B00001FB043100FB0510810041EA9270079072
:1048C0000598000E8DF808000598000C8DF8090079
:1048D0000598000A8DF80A000598C0B28DF80B0003
:1048E0000698000E8DF80C000698000C8DF80D004F
:1048F0000698000A8DF80E000698C0B28DF80F00D9
:104900000798000E8DF810000798000C8DF8110024
:104910000798000A8DF812000798C0B28DF81300AE
:1049200002AA0C214FF4257001F0BEFE08B070BD44
:104930000401002030B585B0044616A207CA02ABB8
:1049400007C3C82C03DD4FF0FF3005B030BDC820D1
:1049500090FBF4F0401E85B2280A8DF80000E8B202
:104960008DF801006A46022140F2162001F09CFEFB
:1049700010B14FF0FF30E8E702AA0C2140F6C12049
:1049800001F092FE10B14FF0FF30DEE70448848161
:104990000020DAE7FEF2ABC4AAF1DFDFBBAFDFDF56
:1049A000040100201FB504464848007A00F00300C7
:1049B00054F8200001904548007A00F0040010B13E
:1049C0000198404201904148007AC0F3C10054F878
:1049D000200002903D48007A00F0200010B10298BB
:1049E000404202903948007AC0F3811054F8200008
:1049F00003903648008900F4807010B1039840425B
:104A000003903349019880FB0101800F40EA810047
:104A100001902F49029880FB0110820042EA9170B8
:104A200002902B49039880FB0110820042EA9170AA
:104A300003900198000E8DF800000198000C8DF88D
:104A400001000198000A8DF802000198C0B28DF8AB
:104A500003006A4604214FF4747001F025FE18B17A
:104A60004FF0FF3004B010BD0298000E8DF800002A
:104A70000298000C8DF801000298000A8DF80200DF
:104A80000298C0B28DF803006A4604214FF4757095
:104A900001F00AFE10B14FF0FF30E3E70398000E7B
:104AA0008DF800000398000C8DF801000398000AAF
:104AB0008DF802000398C0B28DF803006A46042105
:104AC0004FF4767001F0F0FDCCE700000401002007
:104AD00009E3CA0210B586B0044647A000680390F7
:104AE00046A00068029046A00068019045A00068BA
:104AF000009004F0030003A9085C8DF8140003A8DB
:104B0000C4F3C101405C8DF8150003A8C4F3811102
:104B1000405C8DF8160004F0030002A9085C8DF8D3
:104B2000100002A8C4F3C101405C8DF8110002A876
:104B3000C4F38111405C8DF8120005AA032140F2F4
:104B4000264001F0B1FD18B14FF0FF3006B010BDA6
:104B500004AA032140F22A4001F0A6FD10B14FF053
:104B6000FF30F3E7019805900098049004F00400EA
:104B700058B19DF8140040F001008DF814009DF824
:104B8000100040F001008DF8100004F0200058B132
:104B90009DF8150040F001008DF815009DF81100FA
:104BA00040F001008DF8110004F4807058B19DF8B8
:104BB000160040F001008DF816009DF8120040F03C
:104BC00001008DF8120005AA03214FF4886001F05E
:104BD0006BFD10B14FF0FF30B8E704AA032140F29B
:104BE000314001F061FD10B14FF0FF30AEE70648F3
:104BF00004810020AAE700004CCD6C000CC92C00F9
:104C0000365676002646660004010020F8B50546B3
:104C10000E464FF47A7095FBF0F000FB06F4200E80
:104C20008DF80000200C8DF80100200A8DF802009C
:104C3000E0B28DF803006A4604214FF4AE7001F033
:104C400033FDF8BD38B50446052094FBF0F084B27E
:104C500020128DF80000E0B28DF801006A460221B2
:104C60004FF4AD7001F020FD38BD38B50446052085
:104C700094FBF0F084B220128DF80000E0B28DF8C1
:104C800001006A4602214FF4AC7001F00DFD38BD01
:104C900038B504460020009004F0010020B19DF8D2
:104CA000000040F03000009004F0020020B19DF8B8
:104CB000000040F00C00009004F0040020B19DF8CA
:104CC000000040F0030000906A4601214FF4A470F8
:104CD00001F0EAFC38BD38B50446012C01DA0124A4
:104CE00002E0042C00DD0424601EC0B200906A467D
:104CF000012140F24F1001F0D7FC38BD2DE9FC47EF
:104D000006460F4606F0070010B1B7F5C86F03DD81
:104D10004FF0FF30BDE8FC87384602F0B9FE81460F
:104D2000594902F06BFD8046684600F09BFD9DF8F6
:104D30000000022806D0042816D0082826D0102803
:104D400048D135E04FF08D41404602F0E9FE814602
:104D500002F066FE84B24D49404602F0E1FE814613
:104D600002F05EFE85B238E04FF08C41404602F022
:104D7000D7FE814602F054FE84B24549404602F017
:104D8000CFFE814602F04CFE85B226E04FF08B410B
:104D9000404602F0C5FE814602F042FE84B23D4923
:104DA000404602F0BDFE814602F03AFE85B214E0B4
:104DB0004FF08A41404602F0B3FE814602F030FED9
:104DC00084B23549404602F0ABFE814602F028FE2F
:104DD00085B202E04FF0FF309CE700BF20128DF853
:104DE0000400E0B28DF8050028128DF80600E8B244
:104DF0008DF8070006F00100A0B101AA02214FF4CE
:104E0000EA7001F051FC10B14FF0FF3082E70DF174
:104E1000060202214FF4927001F046FC10B14FF0EF
:104E2000FF3077E706F00200A0B101AA02214FF49B
:104E3000EC7001F039FC10B14FF0FF306AE70DF172
:104E4000060202214FF4947001F02EFC10B14FF0D5
:104E5000FF305FE706F00400A0B101AA02214FF481
:104E6000EE7001F021FC10B14FF0FF3052E70DF170
:104E7000060202214FF4967001F016FC10B14FF0BB
:104E8000FF3047E7002045E7000048430000404668
:104E90000000C045000040450000C04438B504464D
:104EA000052094FBF0F085B228128DF80000E8B2DE
:104EB0008DF801006A4602214FF4EF7001F0F4FB17
:104EC00038BD38B50446052094FBF0F085B22812B1
:104ED0008DF80000E8B28DF801006A4602214FF417
:104EE000ED7001F0E1FB38BD10B5FCF735FFFCF7C4
:104EF00051FFFCF763FFFCF76BFF10BD7CB5054667
:104F000028494968087801AB04220D2100F022FCF1
:104F100008B107207CBD9DF80700C0F301109DF883
:104F2000041001F0E00140EAE1008DF800009DF876
:104F30000700C0F381009DF8051001F0E00140EA90
:104F4000E1008DF801009DF8070000F003009DF8D6
:104F5000061001F0E00140EAE1008DF802000024B3
:104F60001CE01DF8040018B9002045F8240013E0E7
:104F70000D4845F8240006E055F824000B4902F0DE
:104F8000CFFD45F824001DF80400401EC0B20DF806
:104F900004000028F0D100BF601CC4B2032CE0DB89
:104FA0000020B7E72C0000207B14AE3E1D5A843F42
:104FB0002DE9F04F87B005460C46914601208DF84B
:104FC000100000208DF81100FE4A1268917CFD4A05
:104FD0005268107804AB022200F0EAFB20B14FF0D7
:104FE000FF3007B0BDE8F08FC820FFF759F9002067
:104FF0008DF81000F34A1268D17BF24A526810789B
:1050000004AB012200F0D4FB10B14FF0FF30E8E711
:10501000EC4A12685179EB4A5268107804AB0122CD
:1050200000F0C6FB10B14FF0FF30DAE7E54A126836
:10503000917CE44A5268107804AB012200F0B8FB7E
:1050400010B14FF0FF30CCE7DE4A1268D17DDD4A67
:105050005268107804AB012200F0AAFB10B14FF0A7
:10506000FF30BEE7D74A12681179D64A52681078E5
:1050700004AB012200F09CFB10B14FF0FF30B0E711
:105080000C208DF81000CF4A12681179CD4A526871
:10509000107804AB012200F08BFB10B14FF0FF3011
:1050A0009FE70F20FFF7FCF8C648806A407A8DF82A
:1050B0001000C44A12689178C24A5268107804AB52
:1050C000012200F075FB10B14FF0FF3089E7BD48B9
:1050D000806A007A8DF81000BA4A12685178B94A8D
:1050E0005268107804AB012200F062FB10B14FF05F
:1050F000FF3076E7B9F1000F07D0B248806A807AB6
:1051000040F0E0008DF8100004E0AE48806A807A3C
:105110008DF81000AB4A12689179AA4A526810784B
:1051200004AB012200F044FB10B14FF0FF3058E710
:10513000B9F1000F07D0A348806AC07A40F0E000C0
:105140008DF8100003E0A048C07A8DF810009D4A49
:105150001268D1799B4A5268107804AB012200F0A2
:1051600027FB10B14FF0FF303BE7B9F1000F02D041
:10517000C820FFF795F840208DF81000914A12687A
:105180001179904A5268107804AB012200F010FBAC
:1051900010B14FF0FF3024E778208DF81000894AD5
:1051A00012685179874A5268107804AB012200F0E6
:1051B000FFFA10B14FF0FF3013E783498889FFF7FA
:1051C0006FF800208DF810007E4A126851797D4AF0
:1051D0005268107804AB012200F0EAFA10B14FF0E7
:1051E000FF30FEE6774A1268917A764A5268107864
:1051F00004AB022200F0AEFA10B14FF0FF30F0E63F
:105200009DF811009DF8101040EA012B0C209BFB2B
:10521000F0F0C6B20020A86068602860A0606060FE
:105220002060824665E0674A1268D17A654A526812
:10523000107804AB0C2200F08DFA10B14FF0FF3063
:10524000CFE69DF811009DF8101040EA012000B251
:10525000ADF808009DF813009DF8121040EA0120F7
:1052600000B2ADF80A009DF815009DF8141040EA50
:10527000012000B2ADF80C00BDF908102068084408
:105280002060BDF90A10606808446060BDF90C1028
:10529000A0680844A0609DF817009DF8161040EA29
:1052A000012000B2ADF800009DF819009DF818101B
:1052B00040EA012000B2ADF802009DF81B009DF805
:1052C0001A1040EA012000B2ADF80400BDF9001048
:1052D000286808442860BDF90210686808446860BE
:1052E000BDF90410A8680844A8600AF1010000F0A4
:1052F000FF0AB24597DB3448D0F800C02868C117D0
:10530000090441EA10410704624600233846FAF7CF
:10531000BAFF32460023CDE90201FAF7B4FF286054
:105320002948D0F800C06868C117090441EA104153
:105330000704624600233846FAF7A5FF32460023E9
:10534000CDE90201FAF79FFF68601F48D0F800C05E
:10535000A868C117090441EA104107046246002306
:105360003846FAF790FF32460023CDE90201FAF7FA
:105370008AFFA8601448D0F804C02168C817000448
:1053800040EA11480F046246002338464146FAF7C6
:105390007AFF32460023CDE90201FAF774FF20605C
:1053A0000948D0F804C06068C117090441EA1041F7
:1053B0000704624600233846FAF765FF32460023A9
:1053C00004E000002C0000203C7F0008CDE9020131
:1053D000FAF759FF60601148D0F804C0A068C117FF
:1053E000090441EA10410704624600233846FAF7EF
:1053F0004AFF32460023CDE90201FAF744FFA060DC
:10540000A068002804DDA068A0F58030A06003E05B
:10541000A06800F58030A0600020E2E53C7F000835
:105420002DE9FC5F06460F4600253D49496808788E
:1054300001AB03220D2100F08DF910B10720BDE86A
:10544000FC9F9DF8040000F01F008DF804009DF8FB
:10545000050000F01F008DF805009DF8060000F023
:105460001F008DF80600002456E056F8240057F877
:105470002410A0EB010BBBF1000F01DB594601E04A
:10548000CBF10001084602F0EBFA4FF08F4100909B
:1054900002F0B4F9814601A8005D68B321490868AB
:1054A00002F0F6FA834659461F4802F0A7F98046F3
:1054B00004E01E49404602F033FB804601A8005D2F
:1054C000401EC0B201A908550028F2D14146484605
:1054D00002F094F983464FF07E5102F029FC824697
:1054E0002AF0004B0F488169584602F0E5FB12D2C2
:1054F0000120A04005430EE00A480169484602F039
:10550000DBFA05D307484169484602F0D5FB02D2D1
:105510000120A0400543641C032CA6DB28468EE72F
:105520002C0000203C7F000800B04C4554E3853F30
:1055300010B50446204600F00FF80346E01C00F0CA
:105540000BF843EAC00083B2A01D00F005F843EA5F
:10555000801083B2184610BD014691F90020002A40
:1055600001DD00201EE091F90020002A01DA04206C
:1055700018E091F90120002A01DD012012E091F9E3
:105580000120002A01DA05200CE091F90220002A0E
:1055900001DD022006E091F90220002A01DA06204E
:1055A00000E0072070470000FEF758FEFDF7F2F913
:1055B000FCF748FFFCF7D0FDFDF716FBFFF794FC66
:1055C00001F074F901F0DCF9FDF774F8FDF728FC3F
:1055D000A5E053A0FDF780FC5548006802F004FAEE
:1055E0000446032322460C210120FDF7A9FA514865
:1055F000B0F9042003230C210220FDF7A1FA4E4844
:10560000006802F0F1F90446032322460C211846F3
:10561000FDF796FAFDF7E6FB044604232246012136
:105620000846FDF78DFAFDF7EBFB044604232246FE
:1056300001210220FDF784FA05234048B0F900203B
:1056400001210320FDF77CFA3D4802880223012155
:105650000420FDF74BFA3A48428802230421084609
:10566000FDF744FA36488288022307210420FDF71B
:105670003DFA3048B0F9022003230C210420FDF745
:105680005FFA4FF400412F48FCF790FD012802D14A
:105690002D49088009E04FF400512A48FCF786FDA7
:1056A000012802D10020284908802748008850BBE3
:1056B00026480068002810DD2548006800280CDD19
:1056C000FFF712FC2149098888B2FDF7EFFA20495B
:1056D000098888B2FDF7F2FA15E01C480068002836
:1056E00011DA1B48006800280DDAFEF77BFD174928
:1056F0000988494288B2FDF7D9FA15490988494213
:1057000088B2FDF7DBFA10480088012807D1002095
:10571000FDF7CCFA00214FF08040FDF7BEFF58E7BF
:10572000776861742063616E20692073617900007D
:1057300094000020EC0000209C000020DA000020F3
:105740001401002000100140D4000020DC000020E3
:10575000E00000202DE9F04105460E4617461C46A4
:105760006806050EFCF76CFF2846FCF737FF30464D
:10577000FCF734FFFCF764FF691CC8B2FCF72EFF8E
:105780004FF0000808E00020FCF7C2FE04F8010B0F
:1057900008F1010000F0FF08781E4045F3DC01200D
:1057A000FCF7B6FE2070FCF767FF0020BDE8F08133
:1057B0002DE9F04105460E4617461C466806050EC3
:1057C000FCF73EFF2846FCF709FF3046FCF706FFD2
:1057D0004FF0000807E014F8010BFCF7FFFE08F19A
:1057E000010000F0FF08B845F5DBFCF745FF00209D
:1057F000BDE8F08170B50446002624F00104184885
:1058000090F8240008B1002070BD1548807A10B9C6
:105810004FF0FF30F8E71248057C807A20401049AD
:1058200008740846007CA04202D04FF0FF3600E02A
:10583000002614B90A48007D18B1012000F0C8FF05
:1058400002E0002000F0C4FF3CB100F019FB20B1E1
:10585000034805744FF0FF30D6E73046D4E7000028
:105860002C00002001461148407A30B1012807D0B1
:10587000022808D003280CD108E0022008700BE0B1
:105880000420087008E00820087005E01020087067
:1058900002E04FF0FF30704700BF0448C07C18B1F1
:1058A00008784006000E08700020F4E72C00002065
:1058B00001461348407A30B1012808D002280AD0A6
:1058C000032810D10BE04FF4804008800EE041F631
:1058D0009C7008800AE04FF48050088006E04FF486
:1058E0000060088002E04FF0FF30704700BF0448BE
:1058F000C07C10B10888401008800020F5E7000047
:105900002C00002001460248007C087000207047EF
:105910002C00002001460F48007A30B1012807D042
:10592000022809D003280FD10AE0FA2008800EE0EF
:105930004FF4FA7008800AE04FF47A70088006E0AD
:105940004FF4FA60088002E00020088000BF00BF2A
:10595000002070472C00002001460E48007A30B12C
:10596000012807D0022808D003280CD108E00A48F3
:1059700008600BE00948086008E00948086005E095
:105980000848086002E04FF0FF30704700BF002079
:10599000FBE700002C0000200000034300008342CE
:1059A000333303423333834101461248C07A082817
:1059B00017D2DFE800F01704070A0D101318BC20F7
:1059C000088013E06220088010E02A2008800DE0A3
:1059D000142008800AE00A20088007E005200880DB
:1059E00004E000BF00BF0020088000BF00BF00200F
:1059F000704700002C0000200146064890F8240063
:105A000010B14FF0FF3070470248C0890880002075
:105A1000F9E700002C0000201CB580208DF8000064
:105A2000604A1268917C5F4A526810786B46012286
:105A3000FFF7BEFE10B14FF0FF301CBD6420FEF733
:105A40002FFC00208DF80000564A1268917C554AC0
:105A5000526810786B460122FFF7AAFE10B14FF092
:105A6000FF30EAE74F4A1268917D4E4A526810783B
:105A70006B460622FFF76EFE10B14FF0FF30DCE7F9
:105A80009DF80500C007400F9DF8031001F00101CB
:105A900040EA41009DF8011001F0010140EA0104D3
:105AA00074B1012C03D101213E48C17427E0022CBE
:105AB00003D100213B48C17421E04FF0FF30BCE727
:105AC000384A1268D178374A526810786B460122FA
:105AD000FFF740FE10B14FF0FF30AEE79DF8000039
